:0400000049EF23F0B1
:10080000003C6C3636CF0750B98488083CABAA2A26
:10081000BEA3858832DA0FC93F83F9223F0000006A
:100820003F179ACC373F04B6BA9FAA2A3D00000072
:10083000BFDB0FC940E4CB9640DB0F4940DB0FC95B
:100840003F50465F636F7272656374696F6E2073A9
:1008500074617274656400414E474C453D0025301B
:100860002E326600696E66006E616E0050463D0075
:1008700025640000000E0001EA6FC2C0EBF0C3C0A7
:10088000ECF0C4C0EDF0C5C0EEF0EEBF4CEF04F0EC
:100890004AEF04F060EF04F0010EEA6FEBC078F06D
:1008A000ECC079F0EDC07AF0EEC07BF0CDEC22F038
:1008B00078C0EBF079C0ECF07AC0EDF07BC0EEF0E0
:1008C000000E0001F06F000EEF6F10C1DEF011C1DD
:1008D000DFF0EA51D8B46FEF04F071EF04F085EF68
:1008E00004F0EA51D8A477EF04F079EF04F07FEF39
:1008F00004F0000ED06F2B0ECF6F83EF04F0000ECC
:10090000D06F2D0ECF6FCFC0EAF0EBC001F0ECC07E
:1009100002F0EDC003F0EEC004F0EAEC1EF00104BA
:100920000210D8A496EF04F098EF04F0C9EF04F099
:100930000001EA51D8B49FEF04F0A1EF04F0AAEF50
:1009400004F0EAC016F1DE07D8A0DF07000EF06F52
:10095000010EEF6F160EEF25016E010EF021026EF3
:10096000640E036EB0EC22F00001FD0EDE27FF0ED8
:10097000DF23C0C011F0C1C012F0160E136E010EBD
:10098000146EDEC015F0DFC016F074EC21F068EFD5
:1009900009F0EBC001F0ECC002F0EDC003F0EEC0D6
:1009A00004F0EAEC1EF001500210D8A4DAEF04F0D3
:1009B000DCEF04F0FAEF04F00001EA51D8B4E3EF01
:1009C00004F0E5EF04F0EEEF04F0EAC016F1DE0704
:1009D000D8A0DF07000EF06F010EEF6F160EEF25A7
:1009E000016E010EF021026E680E036EB0EC22F073
:1009F000B4EF04F0000E0001F16F000EF26F800EF4
:100A0000F36F3F0EF46F000ED96F000ED86FEBC07E
:100A100001F0ECC002F0EDC003F0EEC004F0000EF7
:100A2000056E000E066E000E076E000E086EE3ECFB
:100A300020F0D8B01EEF05F020EF05F000EF06F033
:100A40002DEF05F0DAC0F1F0DBC0F2F0DCC0F3F01E
:100A5000DDC0F4F00001D84BD92BF1C028F0F2C072
:100A600029F0F3C02AF0F4C02BF0000E2C6E000E1B
:100A70002D6E200E2E6E410E2F6E46EC0EF028C00D
:100A8000DAF029C0DBF02AC0DCF02BC0DDF0000179
:100A9000DA51EB5D016EDB51EC59026EDC51ED5920
:100AA000036EDD51EE59046EABEC21F004BE64EF31
:100AB00005F004500310021009E1020E015CD8A0F9
:100AC00064EF05F066EF05F022EF05F0DAC0B4F050
:100AD000DBC0B5F0DCC0B6F0DDC0B7F0EBC0B8F0FD
:100AE000ECC0B9F0EDC0BAF0EEC0BBF067EC1EF0A0
:100AF0000001D8A07EEF05F080EF05F022EF05F0B1
:100B0000F151EB5D016EF251EC59026EF351ED596A
:100B1000036EF451EE59046EABEC21F004BE9EEF6F
:100B200005F004500310021007E1020E015CD8B07A
:100B30009CEF05F09EEF05F0E6EF05F0F1C0EBF05D
:100B4000F2C0ECF0F3C0EDF0F4C0EEF000EF06F010
:100B5000F1C00FF0F2C010F0F3C011F0F4C012F0C9
:100B6000000E136E000E146E200E156E410E166EE2
:100B700028EC14F00FC0F1F010C0F2F011C0F3F047
:100B800012C0F4F00001D807D8A0D907F151EB5DED
:100B9000016EF251EC59026EF351ED59036EF451AE
:100BA000EE59046EABEC21F004BEE4EF05F0045006
:100BB0000310021007E1020E015CD8B0E2EF05F06D
:100BC000E4EF05F0E6EF05F09EEF05F0EBC0B4F0C2
:100BD000ECC0B5F0EDC0B6F0EEC0B7F0F1C0B8F0C3
:100BE000F2C0B9F0F3C0BAF0F4C0BBF067EC1EF08D
:100BF0000001D8A0FEEF05F000EF06F0A8EF05F029
:100C0000C6C0D2F0D2C0D3F0010113BF0AEF06F084
:100C10000CEF06F012EF06F012C1CBF013C1CCF0CE
:100C200017EF06F0000E0001CC6F060ECB6FCBC0A5
:100C3000D6F0CCC0D7F00001D64BD72B660ED31917
:100C4000D8A425EF06F027EF06F047EF06F0D9BF4E
:100C50002EEF06F02CEF06F03AEF06F0000EF16FE3
:100C6000000EF26F800EF36F3F0EF46F000ED96F1F
:100C7000000ED86F670ED219D8B441EF06F043EFDB
:100C800006F047EF06F0D851D627D951D723000EEA
:100C9000E96F000EE86FEBC0E0F0ECC0E1F0EDC0F2
:100CA000E2F0EEC0E3F0F1C0DAF0F2C0DBF0F3C046
:100CB000DCF0F4C0DDF0D8EF06F0E0C00FF0E1C0EA
:100CC00010F0E2C011F0E3C012F0F1C013F0F2C076
:100CD00014F0F3C015F0F4C016F028EC14F00FC0B7
:100CE00028F010C029F011C02AF012C02BF0AFEC90
:100CF00018F028C0E4F029C0E5F02AC0E6F02BC0C7
:100D0000E7F0E4C051F0E5C052F0E6C053F0E7C0B0
:100D100054F0E4EC1DF051C0D4F052C0D5F0E0C066
:100D200051F0E1C052F0E2C053F0E3C054F0E4C02F
:100D30002CF0E5C02DF0E6C02EF0E7C02FF0F1C09A
:100D400028F0F2C029F0F3C02AF0F4C02BF046ECF2
:100D50000EF028C055F029C056F02AC057F02BC01D
:100D600058F049EC22F051C0E0F052C0E1F053C01D
:100D7000E2F054C0E3F0F1C00FF0F2C010F0F3C0A5
:100D800011F0F4C012F0000E136E000E146E200E5F
:100D9000156E410E166E28EC14F00FC0F1F010C065
:100DA000F2F011C0F3F012C0F4F00001E84BE92BAF
:100DB000D651E85DE951800AC76FD751800AC759FB
:100DC000D8A0E5EF06F0E7EF06F05DEF06F0F1C022
:100DD00028F0F2C029F0F3C02AF0F4C02BF0000E86
:100DE0002C6E000E2D6EA00E2E6E400E2F6E46EC59
:100DF0000EF028C0E4F029C0E5F02AC0E6F02BC0D0
:100E0000E7F0E0C0B4F0E1C0B5F0E2C0B6F0E3C096
:100E1000B7F0E4C0B8F0E5C0B9F0E6C0BAF0E7C09A
:100E2000BBF067EC1EF00001D8B019EF07F01BEF24
:100E300007F025EF07F0000EE46F000EE56F000EDF
:100E4000E66F000EE76F4EEF07F0E0C001F0E1C083
:100E500002F0E2C003F0E3C004F0E4C005F0E5C036
:100E600006F0E6C007F0E7C008F0E3EC20F0D8A0F9
:100E70003CEF07F03EEF07F04EEF07F00001D4B172
:100E800044EF07F046EF07F04EEF07F0000EE46F77
:100E9000000EE56F000EE66F000EE76FEBC041F04D
:100EA000ECC042F0EDC043F0EEC044F0E4C045F0C9
:100EB000E5C046F0E6C047F0E7C048F0E6EC0BF0CE
:100EC00041C0E0F042C0E1F043C0E2F044C0E3F0D2
:100ED000E0C0B4F0E1C0B5F0E2C0B6F0E3C0B7F0F6
:100EE000000E2C6E000E2D6E200E2E6E410E2F6EFB
:100EF000DAC028F0DBC029F0DCC02AF0DDC02BF01E
:100F000046EC0EF028C0B8F029C0B9F02AC0BAF0FB
:100F10002BC0BBF067EC1EF00001D8A092EF07F0E9
:100F200094EF07F0BCEF07F0D84BD92BDAC028F0CC
:100F3000DBC029F0DCC02AF0DDC02BF0000E2C6EE7
:100F4000000E2D6E200E2E6E410E2F6E46EC0EF012
:100F500028C0DAF029C0DBF02AC0DCF02BC0DDF0BD
:100F6000660E0001D319D8A4B8EF07F0BAEF07F066
:100F7000BCEF07F0D64BD72BDAC0F1F0DBC0F2F0B4
:100F8000DCC0F3F0DDC0F4F0D8C0C9F0D9C0CAF0BD
:100F9000000ED16F000ECE6F000ECD6F000EE96F08
:100FA000000EE86FB9EF08F0E0C00FF0E1C010F0FC
:100FB000E2C011F0E3C012F0F1C013F0F2C014F07F
:100FC000F3C015F0F4C016F028EC14F00FC028F0B0
:100FD00010C029F011C02AF012C02BF0AFEC18F0AD
:100FE00028C0E4F029C0E5F02AC0E6F02BC0E7F005
:100FF000E4C051F0E5C052F0E6C053F0E7C054F051
:10100000E4EC1DF052BE10EF08F0525007E10A0E5A
:10101000515CD8B00EEF08F010EF08F020EF08F0A8
:10102000E4C051F0E5C052F0E6C053F0E7C054F020
:10103000E4EC1DF051C0D4F052C0D5F025EF08F01B
:10104000000E0001D56F090ED46F0001D151D8A454
:101050002CEF08F02EEF08F056EF08F0CABF35EF7E
:1010600008F033EF08F056EF08F0160EEF25D96EB2
:10107000010EF021DA6E2E0EDF6EEF4BF02BDE0745
:10108000D8A0DF07010ED16F56EF08F0160EEF253E
:10109000D96E010EF021DA6E300EDF6EEF4BF02BC1
:1010A000DE07D8A0DF07CD07D8A0CE07CD51CE11DF
:1010B000D8A45DEF08F05FEF08F046EF08F0160ED9
:1010C000EF25D96E010EF021DA6ED451300FDF6EAC
:1010D000EF4BF02BDE07D8A0DF07E0C051F0E1C0F6
:1010E00052F0E2C053F0E3C054F0E4C02CF0E5C08D
:1010F0002DF0E6C02EF0E7C02FF0F1C028F0F2C0CE
:1011000029F0F3C02AF0F4C02BF046EC0EF028C012
:1011100055F029C056F02AC057F02BC058F049ECC2
:1011200022F051C0E0F052C0E1F053C0E2F054C0F0
:10113000E3F0F1C00FF0F2C010F0F3C011F0F4C012
:1011400012F0000E136E000E146E200E156E410E7E
:10115000166E28EC14F00FC0F1F010C0F2F011C0C0
:10116000F3F012C0F4F00001C907D8A0CA07E84B99
:10117000E92BD651E85DE951800AC76FD751800A43
:10118000C759D8B0C6EF08F0C8EF08F0D6EF08F09E
:10119000F0BFD4EF08F0F05109E14B0EEF5DD8A09D
:1011A000D4EF08F0D6EF08F0D4EF07F0000EE96FA7
:1011B0004F0EE86F160EE825D96E010EE921DA6EA2
:1011C000DF6A160EC76F010EC86FEF51C75FF0518F
:1011D000C85BE851C725016EE951C821026E160EA1
:1011E000036E010E046EEFC005F0F0C006F0D6EC01
:1011F00021F00001EF51E85DEF6FF051E959F06F18
:10120000EA51D8A406EF09F009EF09F0010E0AEF40
:1012100009F0000EE86FE96BFEA311EF09F013EF80
:1012200009F041EF09F023EF09F0EF07D8A0F0072C
:10123000160EEF25D96E010EF021DA6E300EDF6E3C
:10124000DE07D8A0DF07DE51E85DE951800AC76FED
:10125000DF51800AC759D8B030EF09F032EF09F0FA
:1012600041EF09F0EF51E85DE951800AC76FF05195
:10127000800AC759D8A03FEF09F041EF09F015EFF8
:1012800009F0EA51D8B447EF09F049EF09F054EFFB
:1012900009F0EF07D8A0F007160EEF25D96E010E62
:1012A000F021DA6EEAC0DFFFE851DE5FE951DF5B73
:1012B000C0C011F0C1C012F0160EEF25136E010E62
:1012C000F021146EDEC015F0DFC016F074EC21F0D2
:1012D00012009AC0B0F09BC0B1F09CC0B2F09DC0AB
:1012E000B3F00001B3BF77EF09F07AEF09F0010E18
:1012F0007BEF09F0000EAB6FB39FDB0EB05D0F0EFE
:10130000B159490EB2593F0EB359D8B08AEF09F01E
:101310008CEF09F0B5EF09F0800EB25D390EB359CC
:10132000D8B095EF09F097EF09F0A1EF09F0000EA2
:101330009A6F000E9B6F800E9C6F3F0E9D6FE5EFC6
:101340000BF09AC051F09BC052F09CC053F09DC06E
:1013500054F0B8EC19F051C09AF052C09BF053C051
:101360009CF054C09DF0E5EF0BF0D20EB05D530E33
:10137000B1597B0EB259400EB359D8B0C2EF09F043
:10138000C4EF09F08BEF0AF0E40EB05DCB0EB1595B
:10139000160EB259400EB359D8A0D1EF09F0D3EFD1
:1013A00009F02FEF0AF0AB51D8A4D9EF09F0DBEF29
:1013B00009F0F7EF09F09AC041F09BC042F09CC0E1
:1013C00043F09DC044F0DB0E456E0F0E466E490E95
:1013D000476EC00E486EE6EC0BF041C09EF042C076
:1013E0009FF043C0A0F044C0A1F011EF0AF09AC0F2
:1013F00041F09BC042F09CC043F09DC044F0DB0E26
:10140000456E0F0E466E490E476E400E486EE6EC76
:101410000BF041C09EF042C09FF043C0A0F044C01A
:10142000A1F09EC051F09FC052F0A0C053F0A1C0E7
:1014300054F0B8EC19F051C078F052C079F053C0B4
:101440007AF054C07BF0CDEC22F078C09AF079C0ED
:101450009BF07AC09CF07BC09DF0E5EF0BF0AB51A8
:10146000D8B435EF0AF037EF0AF065EF0AF09AC00A
:1014700041F09BC042F09CC043F09DC044F0DB0EA5
:10148000456E0F0E466EC90E476E3F0E486EE6EC77
:101490000BF041C0A7F042C0A8F043C0A9F044C07F
:1014A000AAF0A7C059F0A8C05AF0A9C05BF0AAC022
:1014B0005CF096EC17F059C09AF05AC09BF05BC0F4
:1014C0009CF05CC09DF0E5EF0BF0DB0E516E0F0E53
:1014D000526EC90E536E3F0E546E9AC055F09BC0AB
:1014E00056F09CC057F09DC058F049EC22F051C016
:1014F00059F052C05AF053C05BF054C05CF096EC07
:1015000017F059C09AF05AC09BF05BC09CF05CC0C9
:101510009DF0E5EF0BF0D60EB05D310EB159E20E45
:10152000B259400EB359D8B098EF0AF09AEF0AF0CA
:1015300045EF0BF0E00EB05DED0EB159AF0EB259B4
:10154000400EB359D8A0A7EF0AF0A9EF0AF0FBEFBD
:101550000AF0AB51D8A4AFEF0AF0B1EF0AF0CDEF2B
:101560000AF09AC041F09BC042F09CC043F09DC07D
:1015700044F0DB0E456E0F0E466EC90E476EC00E70
:10158000486EE6EC0BF041C0A2F042C0A3F043C0AD
:10159000A4F044C0A5F0E7EF0AF09AC041F09BC068
:1015A00042F09CC043F09DC044F0DB0E456E0F0E30
:1015B000466EC90E476E400E486EE6EC0BF041C019
:1015C000A2F042C0A3F043C0A4F044C0A5F0A2C062
:1015D00051F0A3C052F0A4C053F0A5C054F0B8EC31
:1015E00019F051C09AF052C09BF053C09CF054C007
:1015F0009DF0E5EF0BF0AB51D8B401EF0BF003EF2A
:101600000BF029EF0BF0E40E516ECB0E526E960EDE
:10161000536EC00E546E9AC055F09BC056F09CC0DD
:1016200057F09DC058F049EC22F051C059F052C01B
:101630005AF053C05BF054C05CF096EC17F059C000
:101640009AF05AC09BF05BC09CF05CC09DF0E5EF47
:101650000BF09AC041F09BC042F09CC043F09DC08B
:1016600044F0E40E456ECB0E466E960E476EC00EED
:10167000486EE6EC0BF041C0A7F042C0A8F043C0B2
:10168000A9F044C0AAF051EF0AF0800EB25D7F0EBF
:10169000B359D8A04EEF0BF050EF0BF062EF0BF008
:1016A000FF0EB06FFF0EB16FFF0EB26F7F0EB36F04
:1016B000B0C09AF0B1C09BF0B2C09CF0B3C09DF036
:1016C000E5EF0BF09AC07CF09BC07DF09CC07EF0F3
:1016D0009DC07FF0AC0E806F47EC12F000017C5192
:1016E000030BA66FCCEF0BF0ACC051F0ADC052F0C5
:1016F000AEC053F0AFC054F0B8EC19F051C09AF03E
:1017000052C09BF053C09CF054C09DF0E5EF0BF02D
:10171000ACC051F0ADC052F0AEC053F0AFC054F009
:10172000B8EC19F051C078F052C079F053C07AF09B
:1017300054C07BF0CDEC22F078C09AF079C09BF0D9
:101740007AC09CF07BC09DF0E5EF0BF0ACC078F068
:10175000ADC079F0AEC07AF0AFC07BF0CDEC22F036
:1017600078C0ACF079C0ADF07AC0AEF07BC0AFF01D
:10177000ACC059F0ADC05AF0AEC05BF0AFC05CF089
:1017800096EC17F059C09AF05AC09BF05BC09CF0E1
:101790005CC09DF0E5EF0BF0A6515D6E5E6A5E5099
:1017A000000AD8B4D6EF0BF0B8EF0BF05D50000A8A
:1017B000D8B474EF0BF0010AD8B4A6EF0BF0030A0B
:1017C000D8B488EF0BF0B8EF0BF012004450800B48
:1017D0004D6E445044244F6E43AEF1EF0BF0F3EFE7
:1017E0000BF0F4EF0BF04F804F50D8B4FAEF0BF042
:1017F000FCEF0BF011EF0CF04F28D8A402EF0CF027
:1018000004EF0CF00CEF0CF0000E416E000E426E77
:10181000000E436E000E446E438E000E446E19EFB0
:101820000CF0000E416E000E426E000E436E000E74
:10183000446E4850800B4E6E4D504E18D8B423EF76
:101840000CF025EF0CF026EF0CF04D8C485048249E
:101850004E6E47AE2EEF0CF030EF0CF031EF0CF087
:101860004E804E50D8B437EF0CF039EF0CF04EEFFD
:101870000CF04E28D8A43FEF0CF041EF0CF049EFEC
:101880000CF0000E456E000E466E000E476E000E08
:10189000486E478E000E486E56EF0CF0000E456EF7
:1018A000000E466E000E476E000E486E4F504E5CA6
:1018B000D8B05DEF0CF05FEF0CF086EF0CF04DACA4
:1018C00064EF0CF066EF0CF068EF0CF0800E4D1A30
:1018D0004FC050F04EC04FF050C04EF041C050F0DD
:1018E00045C041F050C045F042C050F046C042F003
:1018F00050C046F043C050F047C043F050C047F0DE
:1019000044C050F048C044F050C048F0000E506E43
:101910004F504EC049F04A6A495E000E4A5A4ABECC
:101920009BEF0CF04A5009E11A0E495CD8A09BEFDE
:101930000CF09DEF0CF0D4EF0CF04150421043102E
:101940004410D8A4A6EF0CF0A9EF0CF0010EAAEFFA
:101950000CF0000E506E000E416E000E426E000E36
:10196000436E000E446E4EC04FF0DDEF0CF050A001
:10197000BCEF0CF0BEEF0CF0C4EF0CF0D890503080
:101980000109506EC6EF0CF0D890503241A0CBEF59
:101990000CF0CDEF0CF0CEEF0CF0508E443444320E
:1019A0004332423241324F2A4E504F5CD8A0DBEFD7
:1019B0000CF0DDEF0CF0B7EF0CF04DBCE2EF0CF0EB
:1019C000E4EF0CF024EF0DF04F50D8A4EAEF0CF048
:1019D000ECEF0CF0F6EF0CF0000E416E000E426ED4
:1019E000000E436E000E446E45EF0EF0455041264A
:1019F00046504222475043224850442244A003EF1D
:101A00000DF005EF0DF0B1EF0DF050A00AEF0DF065
:101A10000CEF0DF012EF0DF0D89050300109506E20
:101A200014EF0DF0D890503241A019EF0DF01BEFDC
:101A30000DF01CEF0DF0508E4434443243324232EC
:101A400041324F2AB1EF0DF04550415C46504258AB
:101A5000475043584450800A496E4850800A4958BC
:101A6000D8B035EF0DF037EF0DF062EF0DF04150CB
:101A7000455C496E425046584A6E435047584B6E3B
:101A8000445048584C6EFF0E4924416EFF0E4A20C8
:101A9000426EFF0E4B20436EFF0E4C20446E800EB4
:101AA0004D1A506C5050D8A458EF0DF05AEF0DF06D
:101AB0006AEF0DF0010E4126000E4222432244221D
:101AC0006AEF0DF04550415E4650425A4750435A26
:101AD0004850445A4150421043104410D8A473EF68
:101AE0000DF075EF0DF0AAEF0DF05050D8A47BEF7C
:101AF0000DF07DEF0DF0AAEF0DF0000E416E000E1F
:101B0000426E000E436E000E446E45EF0EF0D8900C
:101B1000413642364336443650AE91EF0DF093EFE6
:101B20000DF094EF0DF0418050A099EF0DF09BEF78
:101B30000DF09FEF0DF0D8805036A1EF0DF0D8904A
:101B400050364F50D8B4A7EF0DF0A9EF0DF0AAEF23
:101B50000DF04F0643AEAFEF0DF0B1EF0DF087EF94
:101B60000DF0000E4E6E50AEB8EF0DF0BAEF0DF066
:101B7000D2EF0DF050C049F07F0E4916D8B4C3EF34
:101B80000DF0C5EF0DF0C9EF0DF0010E4E6ED2EF66
:101B90000DF041A0CEEF0DF0D0EF0DF0D2EF0DF033
:101BA000C5EF0DF04E50D8B4D8EF0DF0DAEF0DF0D0
:101BB00005EF0EF0010E4126000E42224322442280
:101BC00044A0E5EF0DF0E7EF0DF005EF0EF041C09A
:101BD00049F042C04AF043C04BF044C04CF04C3492
:101BE0004C324B324A32493249C041F04AC042F08D
:101BF0004BC043F04CC044F04F28D8B402EF0EF075
:101C000004EF0EF005EF0EF04F2A4F28D8B40BEF7B
:101C10000EF00DEF0EF015EF0EF04F50D8A413EFAD
:101C20000EF015EF0EF027EF0EF0000E416E000ED5
:101C3000426E000E436E000E446E4F50D8A423EF48
:101C40000EF025EF0EF027EF0EF0000E4D6E4FA0B8
:101C50002CEF0EF02EEF0EF031EF0EF0438E32EF40
:101C60000EF0439ED8904F30446E4DAE3AEF0EF0DA
:101C70003CEF0EF03DEF0EF0448E41C041F042C00B
:101C800042F043C043F044C044F012002B50800B9C
:101C9000346E2B502B243A6E2AAE51EF0EF053EFD8
:101CA0000EF054EF0EF03A803A50D8B45AEF0EF0DE
:101CB0005CEF0EF06FEF0EF03A28D8A462EF0EF052
:101CC00064EF0EF06CEF0EF0000E286E000E296E21
:101CD000000E2A6E000E2B6E2A8E77EF0EF0000E8D
:101CE000286E000E296E000E2A6E000E2B6E2F50ED
:101CF000800B341A2F502F24356E2EAE82EF0EF04B
:101D000084EF0EF085EF0EF035803550D8B48BEFB0
:101D10000EF08DEF0EF0A0EF0EF03528D8A493EF63
:101D20000EF095EF0EF09DEF0EF0000E2C6E000EF3
:101D30002D6E000E2E6E000E2F6E2E8EA8EF0EF062
:101D4000000E2C6E000E2D6E000E2E6E000E2F6EED
:101D50003550D8B4AEEF0EF0B0EF0EF0B8EF0EF095
:101D60003A50D8A4B6EF0EF0B8EF0EF0C2EF0EF076
:101D7000000E286E000E296E000E2A6E000E2B6ECD
:101D80005AEF10F02E502802F3CF3FF0F4CF40F07E
:101D90003F50366E376A386A396A40503B6E3C6A4B
:101DA0003D6A3E6A2D502902F3CF3FF0F4CF40F058
:101DB0003F503626000E37223822392240503B262B
:101DC000000E3C223D223E222C502A02F3CF3FF04F
:101DD000F4CF40F03F503626000E37223822392209
:101DE00040503B26000E3C223D223E2238C039F0B6
:101DF00037C038F036C037F0366A2C502902F3CF9E
:101E00003FF0F4CF40F03F50362640503722000ECE
:101E10003822000E39222D502802F3CF3FF0F4CFA4
:101E200040F03F50362640503722000E3822000E38
:101E3000392238C039F037C038F036C037F0366A4A
:101E40002C502802F3CF3FF0F4CF40F03F5036261D
:101E500040503722000E3822000E39222E5029021F
:101E6000F3CF3FF0F4CF40F03F503B2640503C22B0
:101E7000000E3D22000E3E222D502A02F3CF3FF0ED
:101E8000F4CF40F03F503B2640503C22000E3D2214
:101E9000000E3E222E502A02F3CF3FF0F4CF40F046
:101EA0003F50306E4050316E326A336A32C033F088
:101EB00031C032F030C031F0306A30503B26315002
:101EC0003C2232503D2233503E2236C030F037C0E3
:101ED00031F038C032F039C033F0190E75EF0FF021
:101EE000D8903332323231323032E82E70EF0FF088
:101EF00030503B2631503C2232503D2233503E225E
:101F000038C039F037C038F036C037F0366A35504F
:101F10003AC030F0316A3026000E3122820E302471
:101F20003F6EFF0E3120406EABEF0FF0D8903B3686
:101F30003C363D363E3639AEA0EF0FF0A2EF0FF043
:101F4000A3EF0FF03B80D890363637363836393627
:101F50003F06D8A040063DAEB0EF0FF0B2EF0FF055
:101F600096EF0FF0000E356E39AEB9EF0FF0BBEF04
:101F70000FF0DFEF0FF0FF0E3614306EFF0E371448
:101F8000316EFF0E3814326E7F0E3914336E3050BE
:101F9000311032103310D8B4D0EF0FF0D2EF0FF071
:101FA000D6EF0FF0010E356EDFEF0FF03BA0DBEF49
:101FB0000FF0DDEF0FF0DFEF0FF0D2EF0FF0355045
:101FC000D8B4E5EF0FF0E7EF0FF00BEF10F0010ED4
:101FD0003B26000E3C223D223E223EA0F2EF0FF0B7
:101FE000F4EF0FF00BEF10F03BC030F03CC031F0DD
:101FF0003DC032F03EC033F033343332323231320E
:10200000303230C03BF031C03CF032C03DF033C024
:102010003EF03F4A402A40BE16EF10F0405008E123
:102020003F28D8A016EF10F018EF10F022EF10F0B4
:10203000000E3B6E000E3C6E800E3D6E7F0E3E6EBF
:1020400050EF10F040BE2FEF10F0405006E13F047B
:10205000D8B02DEF10F02FEF10F03BEF10F0000E86
:102060003B6E000E3C6E000E3D6E000E3E6E000E8E
:10207000346E50EF10F03FC03AF0FF0E3B16FF0EEB
:102080003C167F0E3D16000E3E163AA04AEF10F0A9
:102090004CEF10F04DEF10F03D8ED8903A303E6E80
:1020A00034503E123BC028F03CC029F03DC02AF01D
:1020B0003EC02BF0120061EC23F08EEC22F0000EFB
:1020C000956E56EC23F0050EBD6E9E949EA46BEFAC
:1020D00010F06DEF10F066EF10F0BECFA9F1BFCF9A
:1020E000AAF1040EBD6E9E949EA479EF10F07BEFD2
:1020F00010F074EF10F0BECFABF1BFCFACF1010127
:10210000AB51A95DAC51AA59D8B089EF10F08BEF53
:1021100010F093EF10F0A951AB5D9D6FAA51AC592F
:102120009E6F99EF10F0A951AB5D9D6FAA51AC590C
:102130009E6FC00E29EC1DF0030E0001FD6F8A0E8C
:10214000FC6F550EE82EFED7FC2FFCD7FD2FFAD7DB
:1021500000D0000E2C6E000E2D6E400E2E6E400E26
:102160002F6E800E136E960E146E980E156E4B0E1B
:10217000166E9DC1FCF09EC1FDF00001D890FC37A9
:10218000FD37D890FC37FD37FCC001F0FDC002F0F0
:10219000036A046A000E94EC1BF001C00FF002C049
:1021A00010F003C011F004C012F028EC14F00FC0BE
:1021B00028F010C029F011C02AF012C02BF046EC14
:1021C0000EF028C041F029C042F02AC043F02BC0D5
:1021D00044F0520E456E490E466E1D0E476EB90E06
:1021E000486EE6EC0BF041C095F142C096F143C059
:1021F00097F144C098F195C128F096C129F097C194
:102200002AF098C12BF0000E2C6EA00E2D6E8C0EB5
:102210002E6E460E2F6E46EC0EF028C0A5F129C09A
:10222000A6F12AC0A7F12BC0A8F1800E29EC1DF061
:10223000570E046E0450D8A4080E056E38EC21F039
:10224000A5C187F1A6C188F1A7C189F1A8C18AF10A
:102250001EEC23F0C00E29EC1DF06C0E046E045031
:10226000D8A4080E056E38EC21F0A5C19AF0A6C1DD
:102270009BF0A7C19CF0A8C19DF069EC09F09AC041
:102280009FF19BC0A0F19CC0A1F19DC0A2F1000EE6
:10229000516E000E526E000E536E3F0E546E9FC173
:1022A00055F0A0C156F0A1C157F0A2C158F049ECB9
:1022B00022F051C099F152C09AF153C09BF154C021
:1022C0009CF199C187F19AC188F19BC189F19CC1A8
:1022D0008AF11EEC23F0000E0101A46F000EA36F23
:1022E000E1EF11F0940E29EC1DF0410E046E045044
:1022F000D8A4080E056E38EC21F0030E0001FD6F26
:102300008A0EFC6F550EE82EFED7FC2FFCD7FD2F52
:10231000FAD700D0AAEF11F083968394839C839E12
:10232000D1EF11F083868394839C839ED1EF11F0CB
:1023300083868384839C839ED1EF11F0838683847C
:10234000838C839ED1EF11F083868384838C838E6C
:10235000D1EF11F0A3C1FCF0A4C1FDF00001FD51CB
:10236000000AD8B4B6EF11F0D1EF11F0FC51000A19
:10237000D8B48CEF11F0010AD8B492EF11F0030A2F
:10238000D8B498EF11F0010AD8B49EEF11F0070A03
:10239000D8B4A4EF11F0010AD8B48CEF11F0D1EF4A
:1023A00011F0030E0001FD6F8A0EFC6F550EE82E32
:1023B000FED7FC2FFCD7FD2FFAD700D00101A34B8D
:1023C000A42BA4BFEFEF11F0A45107E1060EA35D0B
:1023D000D8B0EDEF11F0EFEF11F02EEF12F0A5C134
:1023E0009AF0A6C19BF0A7C19CF0A8C19DF069EC32
:1023F00009F09AC09FF19BC0A0F19CC0A1F19DC0C3
:10240000A2F19FC155F0A0C156F0A1C157F0A2C1E1
:1024100058F0000E516E000E526E000E536E3F0EBD
:10242000546E49EC22F051C0B4F052C0B5F053C024
:10243000B6F054C0B7F0A40E0001B86F700EB96FBB
:102440007D0EBA6F3F0EBB6F67EC1EF00001D8A087
:102450002CEF12F02EEF12F072EF11F00101144B7D
:10246000152B15BF3DEF12F0155109E1060E145D55
:10247000D8A03DEF12F03FEF12F063EF10F0000E26
:10248000156F000E146F61EF10F000EF00F00CC13B
:102490008AF00DC18BF00EC18CF00FC18DF07CC0A5
:1024A0008AF07DC08BF07EC08CF07FC08DF0000183
:1024B0008DBF5DEF12F060EF12F0010E61EF12F0D0
:1024C000000E896F8D9FDB0E8A5D0F0E8B59C90E32
:1024D0008C594D0E8D59D8B070EF12F072EF12F08A
:1024E0005EEF13F07CC001F07DC002F07EC003F00F
:1024F0007FC004F0EAEC22F001C092F002C093F039
:1025000003C094F004C095F0000E456E000E466EB8
:10251000000E476E3F0E486E830E2C6EF90E2D6E28
:10252000220E2E6E3F0E2F6E92C028F093C029F01F
:1025300094C02AF095C02BF046EC0EF028C041F074
:1025400029C042F02AC043F02BC044F0E6EC0BF067
:1025500041C051F042C052F043C053F044C054F067
:10256000E4EC1DF051C096F052C097F053C098F0C3
:1025700054C099F096C001F097C002F098C003F0E3
:1025800099C004F0010E94EC1BF001C08EF002C063
:102590008FF003C090F004C091F0DA0E2C6E0F0E95
:1025A0002D6EC90E2E6E3F0E2F6E8EC028F08FC07E
:1025B00029F090C02AF091C02BF046EC0EF028C014
:1025C00055F029C056F02AC057F02BC058F092C0E1
:1025D00051F093C052F094C053F095C054F049ECC0
:1025E00022F051C085F052C086F053C087F054C02D
:1025F00088F085C051F086C052F087C053F088C083
:1026000054F0A30E2C6E850E2D6E880E2E6E320E9B
:102610002F6E8EC028F08FC029F090C02AF091C094
:102620002BF046EC0EF028C055F029C056F02AC019
:1026300057F02BC058F049EC22F000018051D96EC0
:10264000DA6A51C0DEFF52C0DEFF53C0DEFF54C065
:10265000DEFF8951D8B42FEF13F031EF13F058EFAC
:1026600013F08051D96EDA6ADECF78F0DECF79F0E0
:10267000DECF7AF0DECF7BF0CDEC22F0000180518E
:10268000D96EDA6A78C0DEFF79C0DEFF7AC0DEFF7D
:102690007BC0DEFF96C05BF097C05CF05B1E5C1EEB
:1026A0005B4A5C2A5BC07CF05CC07DF027EF14F0D5
:1026B00096C07CF097C07DF027EF14F07CC001F04D
:1026C0007DC002F07EC003F07FC004F0EAEC22F08F
:1026D00001C092F002C093F003C094F004C095F0E2
:1026E000000E456E000E466E000E476E3F0E486EA1
:1026F000830E2C6EF90E2D6E220E2E6E3F0E2F6E57
:1027000092C028F093C029F094C02AF095C02BF015
:1027100046EC0EF028C041F029C042F02AC043F038
:102720002BC044F0E6EC0BF041C051F042C052F037
:1027300043C053F044C054F0E4EC1DF051C096F097
:1027400052C097F053C098F054C099F096C001F071
:1027500097C002F098C003F099C004F0010E94EC09
:102760001BF001C08EF002C08FF003C090F004C0D7
:1027700091F0DA0E2C6E0F0E2D6EC90E2E6E3F0EDE
:102780002F6E8EC028F08FC029F090C02AF091C023
:102790002BF046EC0EF028C055F029C056F02AC0A8
:1027A00057F02BC058F092C051F093C052F094C033
:1027B00053F095C054F049EC22F051C085F052C05E
:1027C00086F053C087F054C088F085C051F086C0B1
:1027D00052F087C053F088C054F0A30E2C6E850EC3
:1027E0002D6E880E2E6E320E2F6E8EC028F08FC08A
:1027F00029F090C02AF091C02BF046EC0EF028C0D2
:1028000055F029C056F02AC057F02BC058F049ECBB
:1028100022F051C081F052C082F053C083F054C006
:1028200084F000018051D96EDA6A81C0DEFF82C077
:10283000DEFF83C0DEFF84C0DEFF8951D8B423EF02
:1028400014F025EF14F058EF13F031EF13F01200ED
:102850001250800B1F6E12501224266E11AE33EFF1
:1028600014F035EF14F036EF14F026802650D8B46B
:102870003CEF14F03EEF14F053EF14F02628D8A4E8
:1028800044EF14F046EF14F04EEF14F0000E0F6E0C
:10289000000E106E000E116E000E126E118E000EE4
:1028A000126E5BEF14F0000E0F6E000E106E000E35
:1028B000116E000E126E1650800B1F1A1650162441
:1028C000276E15AE66EF14F068EF14F069EF14F0A0
:1028D00027802750D8B46FEF14F071EF14F086EF13
:1028E00014F02728D8A477EF14F079EF14F081EFD3
:1028F00014F0000E136E000E146E000E156E000E16
:10290000166E158E000E166E8EEF14F0000E136EFE
:10291000000E146E000E156E000E166E135014107D
:1029200015101610D8A497EF14F099EF14F0B1EF2A
:1029300014F0000E0F6E000E106E000E116E000EE1
:10294000126E800E11127F0E12121F5012120FC043
:102950000FF010C010F011C011F012C012F0F4EF1F
:1029600015F02650D8A4B7EF14F0B9EF14F0C3EF68
:1029700014F0000E0F6E000E106E000E116E000EA1
:10298000126EF4EF15F0275026C017F0186A175E84
:10299000000E185A7F0E1724206E000E1820216E8C
:1029A0000FC01BF010C01CF011C01DF012C01EF0B3
:1029B000000E0F6E000E106E000E116E000E126EE5
:1029C000000E226E000E236E000E246E000E256E89
:1029D000000E276E24EF15F02750D8B4F2EF14F054
:1029E000F4EF14F00BEF15F0D8901B361C361D36A3
:1029F0001E36D8900F3610361136123625AE03EF3C
:102A000015F005EF15F006EF15F00F80D89022367F
:102A100023362436253613501B5C14501C58155091
:102A20001D5816501E58D8A018EF15F01AEF15F0C3
:102A300023EF15F0258C13501B5E14501C5A1550B3
:102A40001D5A16501E5A272A190E27642AEF15F010
:102A50002CEF15F0ECEF14F01B501C101D101E1085
:102A6000D8B435EF15F037EF15F04FEF15F02280A1
:102A70004FEF15F0D8900F3610361136123625AEBE
:102A800044EF15F046EF15F047EF15F00F80D890A2
:102A900022362336243625362006D8A0210611AE4C
:102AA00054EF15F056EF15F03AEF15F0000E276EC3
:102AB00025AE5DEF15F05FEF15F083EF15F0FF0E1B
:102AC0002214176EFF0E2314186EFF0E2414196EB5
:102AD0007F0E25141A6E1750181019101A10D8B43A
:102AE00074EF15F076EF15F07AEF15F0010E276E02
:102AF00083EF15F00FA07FEF15F081EF15F083EF56
:102B000015F076EF15F02750D8B489EF15F08BEF5C
:102B100015F0AFEF15F0010E0F26000E1022112256
:102B2000122212A096EF15F098EF15F0AFEF15F006
:102B30000FC017F010C018F011C019F012C01AF031
:102B40001A341A3219321832173217C00FF018C05F
:102B500010F019C011F01AC012F0204A212A21BE2B
:102B6000BAEF15F0215008E12028D8A0BAEF15F0EF
:102B7000BCEF15F0C7EF15F0000E216E2068000EB7
:102B80000F6E000E106E000E116E000E126E21BE42
:102B9000D4EF15F0215006E12004D8B0D2EF15F0A3
:102BA000D4EF15F0E2EF15F0000E216E000E206E4E
:102BB000000E0F6E000E106E000E116E000E126EE3
:102BC000000E1F6E20C026F026A0E9EF15F0EBEFF7
:102BD00015F0EEEF15F0118EEFEF15F0119ED89075
:102BE0002630126EA5EF14F012000001F751D96ED5
:102BF000DA6ADFCFF6FF080EF76E0800F550250AF7
:102C0000D8A405EF16F007EF16F082EF17F0F75192
:102C1000D96EDA6ADF2A000E0101116F000E106F03
:102C200010C1FEF012691369000E666F3EEF16F0D8
:102C3000FE83F751D96EDA6ADF2A3EEF16F0010EF5
:102C40000101666F3EEF16F00001F751D96EDA6AA6
:102C5000DFCFF6FF080EF76E0800F550FA6FFB6B3A
:102C6000FB51000AD8B437EF16F01FEF16F0FA51F7
:102C7000300AD8B418EF16F01FEF16F001016651B4
:102C8000D8B445EF16F047EF16F024EF16F0000128
:102C9000F751D96EDA6ADFCFF6FF080EF76E08003B
:102CA000F5502E0AD8A457EF16F059EF16F069EF39
:102CB00016F0F751D96EDA6ADF2AF7C007F0F8C0CC
:102CC00008F0F9C009F030EC20F007C012F108C09C
:102CD00013F10001F751D96EDA6ADF5001016C6F10
:102CE0006CC1F6FF080EF76E0800F550640AD8B400
:102CF0007CEF16F07EEF16F08CEF16F06CC1F6FF4D
:102D0000080EF76E0800F550690AD8A48AEF16F08D
:102D10008CEF16F0B3EF16F0F8C0D9FFF9C0DAFF68
:102D2000DFCFFAF0020EDE26DFCFFBF0000EDD2251
:102D3000FAC0D9FFFBC0DAFFDECF67F1DDCF68F163
:102D40000001F751D96EDA6A01016C29DF6EF5C016
:102D50001AF0F6C01BF067C11CF068C11DF0B7EC9B
:102D60001AF095EF17F00001F751D96EDA6ADF50CB
:102D700001016C6F6CC1F6FF080EF76E0800F5CF0D
:102D80006BF1D1EF16F001016C2BEBEF16F06C0E2E
:102D900001016B6FEBEF16F0000E01016B6FEBEFB3
:102DA00016F06B510001FA6FFB6BFB51000AD8B4AF
:102DB000DCEF16F0CCEF16F0FA514C0AD8B4C3EFA2
:102DC00016F02A0AD8B4C7EF16F00A0AD8B4C3EF2F
:102DD00016F0CCEF16F06CC1F6FF080EF76E080087
:102DE000F550660AD8A4F7EF16F0F9EF16F07BEF6E
:102DF00017F02FEF17F0F8C0D9FFF9C0DAFFDFCFD7
:102E0000FAF0040EDE26DFCFFBF0000EDD22FAC062
:102E1000D9FFFBC0DAFFDECF67F1DECF68F1DECF8E
:102E200069F1DECF6AF145EF17F0F8C0D9FFF9C0BC
:102E3000DAFFDFCFFAF0040EDE26DFCFFBF0000E64
:102E4000DD22FAC0D9FFFBC0DAFFDECF67F1DECFAB
:102E500068F1DECF69F1DECF6AF145EF17F06B5113
:102E60000001FA6FFB6BFB51000AD8B43AEF17F080
:102E700045EF17F0FA514C0AD8B415EF17F0200AB5
:102E8000D8B4FBEF16F045EF17F0F751D96EDA6AB8
:102E900001016C29DF6E64EF17F0F5C0C0F0F6C0D9
:102EA000C1F067C1C2F068C1C3F069C1C4F06AC1B2
:102EB000C5F06CC1F6FF080EF76E0800F5CFC6F03E
:102EC0003AEC04F095EF17F06CC1F6FF080EF76EC0
:102ED0000800F5500001FA6FFB6BFB51000AD8B4F3
:102EE00074EF17F07BEF17F0FA51660AD8B44DEF84
:102EF00017F07BEF17F00001F751D96EDA6ADF2A7D
:102F000095EF17F0F751D96EDA6ADFCFF6FF080EAA
:102F1000F76E0800F550016E026AF5C003F0F6C0C6
:102F200004F069EC1FF07BEF17F0120059C028F095
:102F30005AC029F05BC02AF05CC02BF059C02CF0BD
:102F40005AC02DF05BC02EF05CC02FF046EC0EF0A6
:102F500028C078F029C079F02AC07AF02BC07BF025
:102F600078C028F079C029F07AC02AF07BC02BF015
:102F700078C02CF079C02DF07AC02EF07BC02FF0F5
:102F800046EC0EF028C064F029C065F02AC066F057
:102F90002BC067F03C0E2C6E6C0E2D6E360E2E6E16
:102FA000360E2F6E78C028F079C029F07AC02AF04A
:102FB0007BC02BF046EC0EF028C041F029C042F057
:102FC0002AC043F02BC044F0CF0E456E070E466E6C
:102FD000500E476EB90E486EE6EC0BF041C060F043
:102FE00042C061F043C062F044C063F078C028F092
:102FF00079C029F07AC02AF07BC02BF059C02CF0A0
:103000005AC02DF05BC02EF05CC02FF046EC0EF0E5
:1030100028C074F029C075F02AC076F02BC077F074
:10302000AB0E456EAA0E466E2A0E476EBE0E486E59
:10303000840E2C6E880E2D6E080E2E6E3C0E2F6E9A
:1030400078C028F079C029F07AC02AF07BC02BF034
:1030500046EC0EF028C041F029C042F02AC043F0EF
:103060002BC044F0E6EC0BF041C068F042C069F0C0
:1030700043C06AF044C06BF064C02CF065C02DF012
:1030800066C02EF067C02FF074C028F075C029F01C
:1030900076C02AF077C02BF046EC0EF028C06CF01A
:1030A00029C06DF02AC06EF02BC06FF059C045F0FA
:1030B0005AC046F05BC047F05CC048F074C02CF0CA
:1030C00075C02DF076C02EF077C02FF068C028F0C4
:1030D00069C029F06AC02AF06BC02BF046EC0EF0F4
:1030E00028C041F029C042F02AC043F02BC044F070
:1030F000E6EC0BF041C070F042C071F043C072F0DA
:1031000044C073F070C041F071C042F072C043F02F
:1031100073C044F060C02CF061C02DF062C02EF08E
:1031200063C02FF06CC028F06DC029F06EC02AF08B
:103130006FC02BF046EC0EF028C045F029C046F0D9
:103140002AC047F02BC048F0E6EC0BF041C059F024
:1031500042C05AF043C05BF044C05CF0120000C1B2
:1031600038F001C139F002C13AF003C13BF028C088
:1031700038F029C039F02AC03AF02BC03BF0810E5C
:103180002C6EFF0E2D6E38C02EF039C02FF03AC0D5
:1031900030F03BC031F0180ED3EF18F0D890313238
:1031A00030322F322E32E82ECEEF18F02E502C2453
:1031B000366E000E2D20376E37BEE8EF18F0375010
:1031C00009E1170E365CD8A0E8EF18F0EAEF18F026
:1031D000F4EF18F028C028F029C029F02AC02AF0FE
:1031E0002BC02BF0B7EF19F037BEF9EF18F0FBEF5B
:1031F00018F06BEF19F036C02CF0FF0E2D6EFF0E9D
:103200002E6E7F0E2F6E000E306E2C660AEF19F0B8
:1032100012EF19F0303430322F322E322D322C2E64
:1032200005EF19F02DC032F02EC033F02FC034F06E
:1032300030C035F0325038142C6E335039142D6EA6
:1032400034503A142E6E35503B142F6E2C502D10E6
:103250002E102F10D8A42FEF19F031EF19F033EF03
:1032600019F0EAEF18F038C02CF039C02DF03AC050
:103270002EF03BC02FF0200E43EF19F0D8902F32E4
:103280002E322D322C32E82E3EEF19F02C502D101C
:103290002E102F10D8B44FEF19F051EF19F059EF4D
:1032A00019F0325038263350392234503A223550F2
:1032B0003B22321C2C6E331C2D6E341C2E6E351CA2
:1032C0002F6E2C5038162D5039162E503A162F507E
:1032D0003B16AFEF19F038C02CF039C02DF03AC0D2
:1032E0002EF03BC02FF0200E7BEF19F0D8902F323C
:1032F0002E322D322C32E82E76EF19F02C502D1074
:103300002E102F10D8A487EF19F089EF19F093EF42
:1033100019F0000E386E000E396E000E3A6E000E77
:103320003B6EAFEF19F0D89038342C6E39342D6ED7
:103330003A342E6E3B342F6E2C502D102E102F1041
:10334000D8B4A5EF19F0A7EF19F0AFEF19F0000E00
:10335000386E000E396E800E3A6EBF0E3B6E38C06E
:1033600028F039C029F03AC02AF03BC02BF01200F7
:1033700051C028F052C029F053C02AF054C02BF09D
:1033800051C02CF052C02DF053C02EF054C02FF07D
:1033900046EC0EF028C074F029C075F02AC076F013
:1033A0002BC077F074C028F075C029F076C02AF0E1
:1033B00077C02BF074C02CF075C02DF076C02EF0C5
:1033C00077C02FF046EC0EF028C070F029C071F0E5
:1033D0002AC072F02BC073F0170E2C6E9A0E2D6E51
:1033E000CC0E2E6E370E2F6E74C028F075C029F0EB
:1033F00076C02AF077C02BF046EC0EF028C041F0E2
:1034000029C042F02AC043F02BC044F03F0E456E65
:10341000040E466EB60E476EBA0E486EE6EC0BF022
:1034200041C060F042C061F043C062F044C063F04C
:10343000000E456E000E466E800E476E3F0E486EC3
:10344000000E2C6E000E2D6E000E2E6EBF0E2F6E17
:1034500074C028F075C029F076C02AF077C02BF030
:1034600046EC0EF028C041F029C042F02AC043F0DB
:103470002BC044F0E6EC0BF041C064F042C065F0B4
:1034800043C066F044C067F074C02CF075C02DF0E6
:1034900076C02EF077C02FF070C028F071C029F0F0
:1034A00072C02AF073C02BF046EC0EF028C068F012
:1034B00029C069F02AC06AF02BC06BF09F0E2C6EF9
:1034C000AA0E2D6E2A0E2E6E3D0E2F6E70C028F0A5
:1034D00071C029F072C02AF073C02BF046EC0EF0D8
:1034E00028C045F029C046F02AC047F02BC048F05C
:1034F00064C041F065C042F066C043F067C044F06C
:10350000E6EC0BF041C06CF042C06DF043C06EF0D1
:1035100044C06FF06CC041F06DC042F06EC043F02B
:103520006FC044F060C02CF061C02DF062C02EF07E
:1035300063C02FF068C028F069C029F06AC02AF083
:103540006BC02BF046EC0EF028C045F029C046F0C9
:103550002AC047F02BC048F0E6EC0BF041C051F018
:1035600042C052F043C053F044C054F012001DBE9C
:10357000BCEF1AF0BFEF1AF0010EC0EF1AF0000E08
:10358000246E010113BFC7EF1AF0C9EF1AF0CBEF99
:103590001AF00001FE93010113BFD3EF1AF0D1EF2F
:1035A0001AF0D9EF1AF0000E216E010E206EDDEF39
:1035B0001AF012C120F013C121F010C122F011C184
:1035C00023F02450D8B4E7EF1AF0E9EF1AF000EF37
:1035D0001BF02206D8A023062450D8A4F2EF1AF03C
:1035E000F4EF1AF0FAEF1AF0000E1F6E2B0E1E6E9B
:1035F000FEEF1AF0000E1F6E2D0E1E6E1EC024F080
:10360000000E266E4F0E256E000E656F38EF1BF014
:103610002506D8A02606160E2524D96E010E2620D2
:10362000DA6E1CC001F01DC002F0000E046E0A0E1E
:10363000036E8BEC20F001C007F002C008F004EC30
:1036400023F00750300FDF6E2006D8A02106220697
:10365000D8A023061CC001F01DC002F0000E046EAD
:103660000A0E036ECEEC1FF001C01CF002C01DF06C
:1036700026BE43EF1BF0265008E12504D8A043EFF7
:103680001BF045EF1BF070EF1BF01C501D10D8A471
:103690004CEF1BF04EEF1BF008EF1BF021BE5BEF71
:1036A0001BF0215006E12004D8B059EF1BF05BEF6E
:1036B0001BF008EF1BF023BE66EF1BF0235008E160
:1036C0002204D8A066EF1BF068EF1BF070EF1BF030
:1036D0000001FEB36EEF1BF070EF1BF008EF1BF064
:1036E0002450D8B476EF1BF078EF1BF083EF1BF07B
:1036F0002506D8A02606160E2524D96E010E2620F2
:10370000DA6E24C0DFFF1AC011F01BC012F0160ED3
:103710002524136E010E2620146E22C015F023C03E
:1037200016F074EC21F01200096E0950D8B49BEF2A
:103730001BF09DEF1BF0BFEF1BF004BEA4EF1BF0CE
:10374000A2EF1BF0BFEF1BF001C005F002C006F0B6
:1037500003C007F004C008F0051E061E071E081E61
:10376000052A000E06220722082205C00BF006C01B
:103770000CF007C00DF008C00EF0C7EF1BF001C041
:103780000BF002C00CF003C00DF004C00EF00150AD
:10379000021003100410D8A4D0EF1BF0D2EF1BF0DE
:1037A000DCEF1BF0000E016E000E026E000E036EC9
:1037B000000E046E6DEF1CF0960E0A6EE6EF1BF025
:1037C0000A2AD8900E320D320C320B32000E0B1436
:1037D000056E000E0C14066E000E0D14076EFE0E24
:1037E0000E14086E0550061007100810D8A4FBEF41
:1037F0001BF0FDEF1BF0E0EF1BF00BEF1CF00A2AB3
:10380000010E0B26000E0C220D220E22D8900E3235
:103810000D320C320B32000E0B14056E000E0C1420
:10382000066E000E0D14076EFF0E0E14086E055086
:10383000061007100810D8A420EF1CF022EF1CF08F
:10384000FFEF1BF02AEF1CF00A06D8900B360C365F
:103850000D360E360DBE2FEF1CF031EF1CF039EF98
:103860001CF0020E0A6037EF1CF039EF1CF024EF59
:103870001CF00AB03EEF1CF040EF1CF041EF1CF0D2
:103880000D9ED8900A320AC005F0066A076A086AD7
:1038900005C008F0076A066A056A05500B12065053
:1038A0000C1207500D1208500E120950D8B45BEFDD
:1038B0001CF05DEF1CF065EF1CF004BE64EF1CF023
:1038C00062EF1CF065EF1CF00E8E0BC001F00CC017
:1038D00002F00DC003F00EC004F01200036E818EE2
:1038E000070E016E7D0EE82EFED7012EFCD70000DC
:1038F000818C070E016E7D0EE82EFED7012EFCD7BF
:10390000000003C001F0013A0F0E01160130D8B0DB
:103910008CEF1CF08FEF1CF0828890EF1CF08298E7
:1039200003C001F0050E026ED8900132022E94EF12
:103930001CF00130D8B09FEF1CF0A2EF1CF0828A7F
:10394000A3EF1CF0829A03C001F0060E026ED8901D
:103950000132022EA7EF1CF00130D8B0B2EF1CF0FC
:10396000B5EF1CF0828CB6EF1CF0829C016A03AEAE
:1039700001D0012A0130D8B0C0EF1CF0C3EF1CF019
:10398000828EC4EF1CF0829E070E016E7D0EE82E23
:10399000FED7012EFCD70000819C070E016E7D0E24
:1039A000E82EFED7012EFCD70000818C070E016E99
:1039B0007D0EE82EFED7012EFCD7000003B0E3EF0A
:1039C0001CF0E6EF1CF08288E7EF1CF0829803C041
:1039D00001F0D89001320130D8B0F1EF1CF0F4EFD3
:1039E0001CF0828AF5EF1CF0829A03C001F0D89097
:1039F0000132D89001320130D8B001EF1DF004EF50
:103A00001DF0828C05EF1DF0829C03C001F0D89060
:103A10000132D8900132D89001320130D8B013EF82
:103A20001DF016EF1DF0828E17EF1DF0829E070E1F
:103A3000016E7D0EE82EFED7012EFCD70000819C82
:103A4000070E016E7D0EE82EFED7012EFCD700007A
:103A50001200036E819E070E016E7D0EE82EFED7CA
:103A6000012EFCD70000818C070E016E7D0EE82E22
:103A7000FED7012EFCD7000003C001F0013A0F0E63
:103A800001160130D8B047EF1DF04AEF1DF08288D3
:103A90004BEF1DF0829803C001F0050E026ED89026
:103AA0000132022E4FEF1DF00130D8B05AEF1DF059
:103AB0005DEF1DF0828A5EEF1DF0829A03C001F077
:103AC000060E026ED8900132022E62EF1DF0013018
:103AD000D8B06DEF1DF070EF1DF0828C71EF1DF00E
:103AE000829C016A03AE01D0012A0130D8B07BEF7D
:103AF0001DF07EEF1DF0828E7FEF1DF0829E070E7F
:103B0000016E7D0EE82EFED7012EFCD70000819CB1
:103B1000070E016E7D0EE82EFED7012EFCD70000A9
:103B2000818C070E016E7D0EE82EFED7012EFCD78C
:103B3000000003B09EEF1DF0A1EF1DF08288A2EF00
:103B40001DF0829803C001F0D89001320130D8B046
:103B5000ACEF1DF0AFEF1DF0828AB0EF1DF0829A3E
:103B600003C001F0D8900132D89001320130D8B0B2
:103B7000BCEF1DF0BFEF1DF0828CC0EF1DF0829CEA
:103B800003C001F0D8900132D8900132D8900132B0
:103B90000130D8B0CEEF1DF0D1EF1DF0828ED2EF04
:103BA0001DF0829E070E016E7D0EE82EFED7012EBF
:103BB000FCD70000819C070E016E7D0EE82EFED71B
:103BC000012EFCD700001200533454345A6E5A5060
:103BD000D8A4EDEF1DF0EFEF1DF0F9EF1DF0000E92
:103BE000516E000E526E000E536E000E546E66EF54
:103BF0001EF051C055F052C056F053C057F054C09B
:103C000058F0200E09EF1EF0D89058325732563235
:103C10005532E82E04EF1EF05550596E538EFF0EAC
:103C20005116FF0E5216FF0E5316000E5416960E26
:103C30005A5E5ABE20EF1EF01EEF1EF036EF1EF049
:103C40005A50800A970FD8B028EF1EF02AEF1EF0C6
:103C50002CEF1EF0EFEF1DF0D89054325332523259
:103C600051325A3E2CEF1EF04EEF1EF01F0E5A64DA
:103C70003CEF1EF03EEF1EF046EF1EF0EFEF1DF0A2
:103C8000D89051365236533654365A065A50D8A424
:103C90004CEF1EF04EEF1EF040EF1EF05950D8B41E
:103CA00054EF1EF056EF1EF05EEF1EF0541E531E32
:103CB000521E516C000E52225322542251C051F018
:103CC00052C052F053C053F054C054F01200000ED2
:103CD0000001B415BC6F000EB515BD6F800EB61592
:103CE000BE6F7F0EB715BF6FBC51BD11BE11BF11A6
:103CF000D8A47DEF1EF07FEF1EF087EF1EF0000EC0
:103D0000B46F000EB56F000EB66F000EB76F000EE9
:103D1000B815BC6F000EB915BD6F800EBA15BE6F19
:103D20007F0EBB15BF6FBC51BD11BE11BF11D8A412
:103D30009CEF1EF09EEF1EF0A6EF1EF0000EB86F77
:103D4000000EB96F000EBA6F000EBB6FB7AFABEFCE
:103D50001EF0ADEF1EF0B6EF1EF0B46DB51FD8B07B
:103D6000B52BB61FD8B0B62B800EB757BBAFBBEF85
:103D70001EF0BDEF1EF0C6EF1EF0B86DB91FD8B033
:103D8000B92BBA1FD8B0BA2B800EBB57000EB41B8C
:103D9000000EB51B000EB61B800EB71B000EB81B25
:103DA000000EB91B000EBA1B800EBB1BB851B45DD0
:103DB000B951B559BA51B659BB51B759D8B0E3EF5B
:103DC0001EF0E5EF1EF0E8EF1EF0D890E9EF1EF0D0
:103DD000D880120004C10BF005C10CF006C10DF033
:103DE00007C10EF001C00BF002C00CF003C00DF0D3
:103DF00004C00EF00BC005F00CC006F00DC007F0BB
:103E00000EC008F0180E0AEF1FF0D89008320732E3
:103E100006320532E82E05EF1FF00550096E0A6ADA
:103E200009500A10D8A417EF1FF019EF1FF039EF4F
:103E30001FF0D8900B34056E0C34066E0D34076EEF
:103E40000E34086E0550061007100810D8A42BEF8A
:103E50001FF02DEF1FF033EF1FF0000E026E020E69
:103E6000016E68EF1FF0000E026E030E016E68EF28
:103E70001FF009280A10D8A440EF1FF042EF1FF0EE
:103E800064EF1FF00BC005F00CC006F00DC007F08A
:103E90000EC008F0090ED8900536063607360836EB
:103EA000E82E4BEF1FF00550061007100810D8B48D
:103EB0005CEF1FF05FEF1FF0010E60EF1FF0000ED0
:103EC000016E026A68EF1FF0000E026E040E016EB2
:103ED000120003500410D8B470EF1FF072EF1FF0FF
:103EE0007BEF1FF003500410D8A479EF1FF07BEF95
:103EF0001FF080EF1FF0015066EC23F0CDEF1FF0B4
:103F000020EE0AF00350D9260450DA22DE50DE10EB
:103F1000D8B48DEF1FF08FEF1FF0AAEF1FF020EE47
:103F20000AF00350D9260450DA2210EE03F00350B1
:103F3000E1260450E222DE50E65CE650800A096E7B
:103F4000DE50800A0958D8B0A8EF1FF0AAEF1FF082
:103F5000CDEF1FF020EE03F00350D9260450DA22F3
:103F6000DECF05F0DDCF06F003C0D9FF04C0DAFFD5
:103F7000DECF07F0DDCF08F005500724D96E0650DC
:103F80000820DA6E01C0DFFF20EE03F00350D926CF
:103F90000450DA22DE2A000EDD221200000E066E28
:103FA00004BED7EF1FF0D5EF1FF0DDEF1FF0036C5D
:103FB000041ED8B0042A010E066E02BEE4EF1FF004
:103FC000E2EF1FF0EAEF1FF0016C021ED8B0022AE8
:103FD000010E061A000E086E000E076E0350041044
:103FE000D8B4F5EF1FF0F7EF1FF01FEF20F0010E30
:103FF000056EFFEF1FF0D89003360436052A04AE95
:1040000004EF20F006EF20F0FBEF1FF0D89007360A
:1040100008360350015C04500258D8A012EF20F07B
:1040200014EF20F019EF20F00350015E0450025A03
:104030000780D89004320332052E06EF20F0065098
:10404000D8B425EF20F027EF20F02BEF20F0076CFD
:10405000081ED8B0082A07C001F008C002F01200FC
:10406000000E0E6E000E0D6E0750D96EDA6ADFCFAD
:10407000F6FF080EF76E0800F5502A0AD8A443EFA1
:1040800020F045EF20F073EF20F00750D96EDA6A88
:10409000DF2A08C0D9FF09C0DAFFDFCF0AF0020E1D
:1040A000DE26DFCF0BF0000EDD220AC0D9FF0BC0E9
:1040B000DAFFDECF0DF0DDCF0EF086EF20F00DC081
:1040C00001F00EC002F0000E046E0A0E036E36EC14
:1040D00023F00C5001240D6E000E02200E6E0750CE
:1040E000D96EDA6ADF2A0750D96EDA6ADFCFF6FFB7
:1040F000080EF76E0800F550D00F0C6E090E0C6418
:1041000084EF20F086EF20F05FEF20F00DC007F085
:104110000EC008F01200000E066E02BE94EF20F0F2
:1041200092EF20F09AEF20F0016C021ED8B0022A24
:10413000010E066E04BEA1EF20F09FEF20F0A5EF68
:1041400020F0036C041ED8B0042A03500410D8B425
:10415000ACEF20F0AEEF20F0D2EF20F0010E056EB4
:10416000B6EF20F0D89003360436052A04AEBBEF34
:1041700020F0BDEF20F0B2EF20F00350015C0450BE
:104180000258D8A0C6EF20F0C8EF20F0CCEF20F006
:104190000350015E0450025AD89004320332052EB7
:1041A000BDEF20F00650D8B4D8EF20F0DAEF20F0C1
:1041B000DEEF20F0016C021ED8B0022A01C001F02F
:1041C00002C002F01200000E0114096E000E02146B
:1041D0000A6E800E03140B6E7F0E04140C6E0950D1
:1041E0000A100B100C10D8A4F8EF20F0FAEF20F012
:1041F00002EF21F0000E016E000E026E000E036E43
:10420000000E046E000E0514096E000E06140A6EF0
:10421000800E07140B6E7F0E08140C6E09500A10E6
:104220000B100C10D8A417EF21F019EF21F021EF9B
:1042300021F0000E056E000E066E000E076E000ED9
:10424000086E055001180FE1065002180CE10750E6
:10425000031809E108500418D8B431EF21F033EF06
:1042600021F036EF21F0D89037EF21F0D8801200FE
:10427000000E086E55EF21F008500424066E000E63
:104280000520076E06C0F6FF07C0F7FFF86A070EA5
:10429000F76403D00800F55005D0F6CFE1FFF7CF63
:1042A000E2FFE7506EEC1CF0082A08500424066E6A
:1042B000000E0520076E06C0F6FF07C0F7FFF86A7C
:1042C000070EF76403D00800F55005D0F6CFE1FFE4
:1042D000F7CFE2FFE7500009D8A471EF21F073EFA8
:1042E00021F03CEF21F0120016BE7BEF21F079EFB8
:1042F00021F07FEF21F0000E166E000E156E000EFD
:10430000196E000E186E91EF21F0000E026E200E55
:10431000016E11C003F012C004F069EC1FF0184ADE
:10432000192A1550185C1950800A176E1650800A09
:104330001758D8A09EEF21F0A0EF21F085EF21F0D3
:1043400013C00AF014C00BF011C00CF012C00DF035
:104350006CEC22F0120004BEB0EF21F0B2EF21F0BD
:10436000BCEF21F001C001F002C002F003C003F075
:1043700004C004F0D5EF21F001C005F002C006F042
:1043800003C007F004C008F0051E061E071E081E25
:10439000052A000E06220722082205C001F006C0E9
:1043A00002F007C003F008C004F0120003C00AF0D6
:1043B00004C00BF001C008F002C009F0F0EF21F0DA
:1043C0000AC0D9FF0BC0DAFFDF50076E0A4A0B2A7A
:1043D00008C0D9FF09C0DAFF07C0DFFF084A092A71
:1043E0000506D8A00606052806E10628D8A4FBEF96
:1043F00021F0FDEF21F0E0EF21F01200750E010138
:10440000796F010E7A6F72C17BF173C17CF1000E7E
:104410007F6F000E7E6F000E866F000E856F7B0E25
:104420006D6F010E6E6F74C16FF1790E706F010EBA
:10443000716F24EC22F001017E517225D96E7F51FB
:104440007321DA6EDF6A12006FC15FF035EF22F080
:104450006DC1F5F06EC1F6F05F0E0001F76F70C12F
:10446000F8F071C1F9F0F5EC15F05FC0F6FF080E39
:10447000F76E0800F5500009D8A441EF22F043EF91
:1044800022F028EF22F0000E01016E6F000E6D6F1A
:104490001200000E551A000E561A000E571A800E02
:1044A000581A51C041F052C042F053C043F054C0BA
:1044B00044F055C045F056C046F057C047F058C0CC
:1044C00048F0E6EC0BF041C051F042C052F043C05E
:1044D00053F044C054F01200000E106E000E0F6E28
:1044E0007DEF22F00EC001F0026A0CC003F00DC097
:1044F00004F069EC1FF00F4A102A0F500A24D96EFD
:1045000010500B20DA6EDF500E6E0E50D8A48BEFD9
:1045100022F08DEF22F072EF22F01200939E939C16
:10452000070E946E620E046E660EE82EFED7042E01
:10453000FCD7020E29EC1DF0280E29EC1DF00C0E04
:1045400029EC1DF0060E29EC1DF0010E29EC1DF0E2
:104550000D0E046EFC0EE82EFED7042EFCD71200C2
:1045600001C005F002C006F0032A0304046E04C073
:10457000F6FF080EF76E05C0D9FF06C0DAFF054A40
:10458000062A0800F5CFDFFFDF50D8A4CAEF22F0DB
:10459000CCEF22F0B4EF22F0120000017851791133
:1045A0007A117B11D8B4D7EF22F0D9EF22F0E1EFE6
:1045B00022F0000E781B000E791B000E7A1B800E75
:1045C0007B1B78C078F079C079F07AC07AF07BC034
:1045D0007BF0120008C105F009C106F00AC107F01E
:1045E0000BC108F001C005F002C006F003C007F0DF
:1045F00004C008F0089E05C001F006C002F007C024
:1046000003F008C004F0120008BE09EF23F00BEF1E
:1046100023F011EF23F007C007F008C008F01DEFEA
:1046200023F007C009F008C00AF0091E0A1E094A53
:104630000A2A09C007F00AC008F012008B0E010117
:10464000726F010E736F5E0E746F87C175F188C152
:1046500076F189C177F18AC178F1FEEC21F08B0EF9
:10466000046E010E056E38EC21F0120001500302B9
:10467000F3CF05F0F4CF06F001500402F350062604
:1046800002500302F350062605C001F006C002F0F6
:10469000120001EE00F0660EEE6AE806FDE1000190
:1046A000FE6B000EF86E00015BEF10F0010E29ECBE
:1046B0001DF00D0E046EFC0EE82EFED7042EFCD766
:0E46C0001200050EBD6E010ECD6E120012002E
:00000001FF
